:100000000C942A000C9447000C9447000C94470071
:100010000C9447000C9447000C9447000C94470044
:100020000C9447000C9447000C9447000C94470034
:100030000C9447000C9447000C9447000C94470024
:100040000C9447000C9447000C9447000C94470014
:100050000C94470011241FBECFE5D8E0DEBFCDBF12
:1000600010E0A0E6B0E0E4E1F6E002C005900D92F9
:10007000A636B107D9F710E0A6E6B0E001C01D92A0
:10008000A636B107E1F70E9443020C9408030C94D2
:100090000000843409F471C0853448F4823499F145
:1000A000833408F04DC0813409F083C00FC082361C
:1000B00051F1833620F4813609F07BC007C08336C6
:1000C00009F43EC0843609F074C057C0413069F469
:1000D0002AB381E090E0AC0102C0440F551F6A953D
:1000E000E2F7BA01622B6ABB08952AB381E090E07F
:1000F000AC0102C0440F551F6A95E2F7BA01609542
:1001000062236ABB0895413069F427B381E090E02F
:10011000AC0102C0440F551F6A95E2F7BA01622B89
:1001200067BB089527B381E090E0AC0102C0440FA3
:10013000551F6A95E2F7BA016095622367BB08957F
:10014000413069F424B381E090E0AC0102C0440F77
:10015000551F6A95E2F7BA01622B64BB089524B378
:1001600081E090E0AC0102C0440F551F6A95E2F7B0
:10017000BA016095622364BB0895413069F421B3EC
:1001800081E090E0AC0102C0440F551F6A95E2F790
:10019000BA01622B61BB089521B381E090E0AC010C
:1001A00002C0440F551F6A95E2F7BA0160956223B9
:1001B00061BB0895843409F471C0853448F48234F5
:1001C00099F1833408F04DC0813409F083C00FC029
:1001D000823651F1833620F4813609F07BC007C0A6
:1001E000833609F43EC0843609F074C057C04130EC
:1001F00069F42BB381E090E0AC0102C0440F551FBD
:100200006A95E2F7BA01622B6BBB08952BB381E0CC
:1002100090E0AC0102C0440F551F6A95E2F7BA01A5
:10022000609562236BBB0895413069F428B381E087
:1002300090E0AC0102C0440F551F6A95E2F7BA0185
:10024000622B68BB089528B381E090E0AC0102C046
:10025000440F551F6A95E2F7BA016095622368BBA7
:100260000895413069F425B381E090E0AC0102C00B
:10027000440F551F6A95E2F7BA01622B65BB0895DA
:1002800025B381E090E0AC0102C0440F551F6A9590
:10029000E2F7BA016095622365BB0895413069F4C5
:1002A00022B381E090E0AC0102C0440F551F6A9573
:1002B000E2F7BA01622B62BB089522B381E090E0BD
:1002C000AC0102C0440F551F6A95E2F7BA01609570
:1002D000622362BB0895843409F43DC0853440F440
:1002E0008234F9F0833450F5813409F040C00CC0F9
:1002F0008236B9F0833618F48136C9F505C08336E5
:10030000E9F08436A1F527C02BB381E090E0AC0181
:1003100002C0440F551F6A95E2F7BA0162276BBB12
:10032000089528B381E090E0AC0102C0440F551F4E
:100330006A95E2F7BA01622768BB089525B381E0A8
:1003400090E0AC0102C0440F551F6A95E2F7BA0174
:10035000622765BB089522B381E090E0AC0102C042
:10036000440F551F6A95E2F7BA01622762BB0895F0
:100370008434D9F0853438F4823499F0833498F495
:100380008134A1F40CC0823661F0833618F48136D2
:1003900069F405C0833639F0843641F406C06ABB7F
:1003A000089567BB089564BB089561BB08958434C4
:1003B000D9F0853438F4823499F0833498F4813458
:1003C000A1F40CC0823661F0833618F4813669F4EA
:1003D00005C0833639F0843641F406C06BBB0895FE
:1003E00068BB089565BB089562BB08956F70823441
:1003F00081F0833418F48134F1F405C0833479F04A
:100400008434C9F412C08BB3807F8BBB8BB3862B33
:100410008BBB88B3807F88BB88B3862B88BB85B3B2
:10042000807F85BB85B3862B85BB82B3807F82BBF3
:1004300082B3682B62BB08956295607F823481F03D
:10044000833418F48134F1F405C0833479F08434B2
:10045000C9F412C08BB38F708BBB8BB3862B8BBB55
:1004600088B38F7088BB88B3862B88BB85B38F70A9
:1004700085BB85B3862B85BB82B38F7082BB82B36D
:10048000682B62BB089581E40E94920281E461E6D8
:100490000E947E028FEF90E7A2E081509040A04042
:1004A000E1F700C0000081E662E044E00E94F20251
:1004B0008FEF90E7A2E081509040A040E1F700C0AC
:1004C000000081E660E670E00E94DF02FFCF82E478
:1004D00060E041E00E94DA008FE99FE00197F1F7C8
:1004E00000C0000082E460E040E00E94DA008FE992
:1004F0009FE00197F1F700C0000008950E94D70126
:1005000082E462E041E00E94DA000E9467020895FE
:100510000E94D70182E462E040E00E94DA000E947B
:1005200067020895CF93C82F8FEF91EEA4E081501A
:100530009040A040E1F700C000008C2F6FEF0E94B8
:10054000B80182E462E041E00E94490082E461E097
:1005500041E00E94490082E460E041E00E944900DD
:1005600082E461E040E00E94DA008C2F68E30E94A0
:100570008802AFECB7E01197F1F700C000008C2FB4
:100580006EE00E9488028FEC97E00197F1F700C0BF
:1005900000008C2F61E00E948802AFE1BEE4119759
:1005A000F1F700C000008C2F66E00E9488028FECFB
:1005B00097E00197F1F700C00000CF9108951F93D5
:1005C000CF93DF93182FEB016881662339F02196D2
:1005D000812F0E947E0269916623D1F7DF91CF912E
:1005E0001F910895962F9150923040F4613019F484
:1005F000642F615804C0642F615401C060E80E94F8
:1006000088028FEC97E00197F1F700C00000089591
:04061000F894FFCF8C
:0606140041484D45440081
:00000001FF
